:020000041000EA
:1000000000B5324B212058609868022188439860DF
:10001000D860186158612E4B002199600221596106
:100020000121F02299502B49196001219960352056
:1000300000F044F80222904214D00621196600F024
:1000400034F8196E01211966002018661A6600F04E
:100050002CF8196E196E196E052000F02FF8012189
:100060000842F9D1002199601B49196000215960AB
:100070001A491B48016001219960EB211966A021F2
:10008000196600F012F800219960164914480160C1
:100090000121996001BC002800D000471248134993
:1000A000086003C880F30888084703B5996A0420EC
:1000B0000142FBD001200142F8D103BD02B5186610
:1000C0001866FFF7F2FF186E186E02BD00000240BE
:1000D000000000180000070000035F00212200005C
:1000E000F4000018222000A00001001008ED00E03C
:1000F00000000000000000000000000074B24E7A12
:1001000000200420F7010010CB010010CD010010E9
:10011000C9010010C9010010C9010010C901001077
:10012000C9010010C9010010C9010010CF01001061
:10013000C9010010C9010010D1010010D301001045
:10014000C1010010C1010010C1010010C101001067
:10015000C1010010C1010010C1010010C101001057
:10016000C1010010C1010010C1010010C101001047
:10017000C1010010C1010010C1010010C101001037
:10018000C1010010C1010010C1010010C101001027
:10019000C1010010C1010010C1010010C101001017
:1001A000C1010010C1010010C1010010C101001007
:1001B000C1010010C1010010C1010010C1010010F7
:1001C000EFF30580103800BE00BE00BE00BE00BECA
:1001D00000BE00BEF2EB8871507600107076001001
:1001E0003802001090A31AE71E481F49086006C88D
:1001F00081F3088810471D480068002801D019487D
:10020000F3E70DA40ECC002902D000F012F8F9E7B4
:100210001749184A002000E001C19142FCD116495B
:100220008847164988471649884700BEFDE701C937
:1002300001C29A42FBD3704770760010C0000020C4
:10024000980C0020488200100000042000000420C8
:10025000488200100010042000100420000000005C
:10026000704700000000000008ED00E0000000D032
:10027000980C00207C22002051620010D102001056
:100280000D620010F8B5C04610B5064C2378002B5F
:1002900007D1054B002B02D0044800E000BF01232A
:1002A000237010BD200E002000000000EC63001041
:1002B000044B10B5002B03D00349044800E000BFF5
:1002C00010BDC04600000000240E0020EC630010AA
:1002D00070B586B000F03CF90421002004F0B6FDB2
:1002E0006B46002100915960996010225A600E4AB5
:1002F0009A6003AA100070CB70C00C4B05930C4B96
:1003000019609960D96005991961049A5A600122AF
:1003100003990A431A60074B1B683E2253401B0493
:100320001B0C054A1360FEE7FFFF0000C309000035
:10033000000005400C0005400C10054010B50300FE
:10034000080011001B68984710BD0000F8B50700B1
:100350000D001600437D002B02D0002400200CE08D
:1003600003681100280098472DE03B7D10E0022132
:1003700015483B689847601C0134B44214DA002CDD
:10038000F3DD2B19013B1B780D3B5A425341DBB285
:100390002A5D0A2AF0D1002BEED1A042E7DA211A19
:1003A00028183B689847E2E7B04203DA311A281868
:1003B0003B689847002E06DDAD19013D2B780D3BBB
:1003C0005A4253413B75F8BDF063001070B505000B
:1003D0000368002B16D00C4B1C6805E0290004C9EB
:1003E0002000FFF7B3FF2469002C09D02368002BFD
:1003F000F9D0064B1B68002BF0D0A342F3D1EDE7F8
:1004000000232B6070BDC0461C1C0020241C002053
:1004100070B505000C000B68802B05D021684B1CC3
:1004200023606418257170BD0800FFF7CFFFF5E762
:1004300010B501F0D3FF074A002312184B41002BDF
:1004400003DB054805F080FF10BD01225242034B3B
:10045000F7E7C04640420F00900C0020FFFFFF7FEF
:1004600010B5024805F048FF10BDC046900C0020B2
:10047000F0B5CE46474680B583B006000D009046E5
:100480001C00FFF7D5FF81466B1C05D0002C08D05F
:10049000184F194B1C6807E0300005F0EDFE050011
:1004A000F4E7164FF5E72469002C17D02368002BDA
:1004B000F9D0134B1B68002B01D0A342F3D12A00C3
:1004C00031002000B8474346002BECD06B46D91DC5
:1004D0000A230B7001222000B847E4E74B46002BAB
:1004E00005D1280003B0C0BCB946B046F0BDFFF747
:1004F000B7FFF6E74D0300101C1C00203D03001061
:10050000241C0020094A01E010331A001368002B54
:1005100008D08342F8D1002907D103691360002372
:10052000036102E0002900D0106070471C1C00200D
:1005300010B5064B1C6801E098472469002C03D0D5
:100540006368002BF8D1F8E710BDC0461C1C0020E2
:1005500010B501F03FFA10BD70B5050005F08CFE36
:1005600004000123012201002800FFF781FFFFF7AB
:10057000DFFF200070BD000070B5A2B004000E00C7
:10058000FFF756FF0500002301933300220001A965
:10059000084801F0ADF8040001A8FFF717FFFFF7C6
:1005A000C7FF002D02D1200022B070BDFFF758FF19
:1005B000F9E7C046110400100FB400B583B004A9D8
:1005C00001C90191FFF7D8FF03B008BC04B0184778
:1005D000704710B5002802D00B684968984710BDD5
:1005E0000100002007E083001B185B00501C08601E
:1005F0001078C01830380A681378303BDBB2092B0A
:10060000F1D97047F0B5DE4657464E464546E0B54F
:1006100083B093461F000C9B9A460D9C0E9B9946F7
:100620000F9B9B0703D0B8460F00060022E0019203
:10063000A34688464E46B9460700B44207D2551C29
:100640004B4641462020B84701342A00F5E73D00DB
:100650004F465C46019B9B46B1464646B84637002E
:100660002E0007E0013C551C5346185D43463900F7
:10067000B0472A00002CF5D135003E0047460F9BBD
:100680009B0707D4100003B0F0BCBB46B246A94696
:10069000A046F0BDB0464E46B9462F005D46531BFE
:1006A000B342EFD2541C4B4641462020B8472200AB
:1006B000F5E7F0B5CE46474680B585B094469846F6
:1006C0000C9D0D9C0EAB1B789946109A119B129EA7
:1006D000B7071CD4002B0CD0F7070AD54F46002FC4
:1006E00002D10C37374204D0013B02E030272F55AE
:1006F0000134944201D21F2CF8D9F70707D59C4248
:1007000005D21F2C03D830272F550134F5E7F70603
:1007100015D5770505D4002C03D0944224D09C42F3
:1007200022D00F9A102A2BD00F9A102A30D00F9A6D
:10073000022A35D01F2C02D830222A5501341F2C12
:1007400005D84A46002A31D02D222A550134039675
:1007500002930194009543466246FFF753FF05B0AC
:10076000C0BCB946B046F0BD621E012C06D00F9F3A
:10077000102F01D01400D4E7023CD2E71400D0E7D8
:10078000B206D1D41F2CCFD878222A550134D1E714
:10079000B206CCD51F2CCAD858222A550134C9E735
:1007A0001F2CC7D860322A550134C3E7720703D51E
:1007B0002B222A550134CAE73207C8D520222A55F0
:1007C0000134C4E7F0B5DE4657464E464546E0B52F
:1007D00093B081468A46089209931CAB10CB1B78D4
:1007E0009B461E9D219B9846002C03D11023424618
:1007F0009A4390468023DB0046461E4042461A42FA
:1008000012D0002C22D000260EE03033D9B2771C53
:100810000AAB99552900200004F0F6FDAC4216D32E
:100820001F2F14D83E0004002900200004F0ECFD26
:10083000CBB2092BE9D94246920605D54121C91808
:10084000C9B20A39C9B2E2E76121F8E72700434695
:100850000693209B05931F9B049303955B4602938D
:1008600001970AAB0093099B089A51464846FFF747
:1008700020FF13B0F0BCBB46B246A946A046F0BD6F
:10088000F0B5DE4657464E464546E0B595B0089071
:1008900009910A920B931E9E1F9C20AB1B789B46CE
:1008A000229B9946239D269B9A463300234303D1DE
:1008B000103352469A4392468023DB0057461F402E
:1008C00052461A4219D0330023432DD0002714E09A
:1008D0003033DAB27B1C98460CABDA554A462B0013
:1008E0003000210004F0CEFDA5421FD819D04346A8
:1008F0001F2B1BD8474606000C004A462B00300031
:10090000210004F0BFFDD3B2092BE1D95246920673
:1009100005D54122D218D2B20A3AD2B2DAE7612220
:10092000F8E7B145E3D901E0002398465346069322
:10093000259B0593249B04934B4603935B460293AC
:10094000434601930CAB00930B9B0A9A09990898B4
:10095000FFF7AFFE15B0F0BCBB46B246A946A046B5
:10096000F0BD0000F0B5DE4657464E464546E0B5C0
:1009700091B083468A460C9298461A9C08941B9D17
:10098000099522002B002000290005F006F8002818
:1009900000D0E5E001225242D74B2000290004F0AC
:1009A000F7FF002800D0DBE001225242D34B2000A9
:1009B000290004F0D7FF002800D0D1E00022002356
:1009C000089E3000099D290004F0CCFF002800D0CB
:1009D000DDE008980999069007918023DB001E9AB4
:1009E0001A400D921E9A1A4201D106231C930698B2
:1009F000079904000D000A000600024300D1D1E06F
:100A0000080D4005400DBE4CA44660440A03120B7D
:100A1000BC4B13431F0004F0D1FFBB4ABB4B04F097
:100A20005EFFBB4ABB4B04F033FF04000D00002205
:100A3000B94B3000390004F022FFB84AB84B04F03B
:100A40004EFF02000B002000290004F021FF04F0FB
:100A5000CDFF814604F0B2FF04000D00B14AB24B55
:100A600004F03DFF0022B14B04F012FF04F0BEFF82
:100A70000600AF4AAF4B2000290004F030FF04000D
:100A80000D00300004F09AFFAB4AAC4B04F027FF96
:100A900002000B002000290004F0F1FE04000D000C
:100AA00002000B0004F01BFF0A900B91A44BF318FB
:100AB00000261F0522002B002000290004F0E8FE7C
:100AC0000E900F9122002B0000208021C90504F018
:100AD000D6FE04000D0000229A4B0A980B9904F0F0
:100AE000E0FE0022984B04F0D3FE02000B000A98AF
:100AF0000B9904F0D6FE0022944B04F0C9FE0200CC
:100B00000B000A980B9904F0CCFE02000B002000A9
:100B1000290004F0BDFE02000B000E980F9904F0AE
:100B2000C0FE0022774B04F0B3FE32003B0004F01D
:100B3000D6FE06000F0004000D00069A079B04F085
:100B400027FF002830D001235B429C46E14400226D
:100B50007D4B3000390004F0A4FE04000D0023E0BA
:100B60001E9B04931D9B03931C9B0293089A099B55
:100B70000092019343460C9A5146584600F0FCF807
:100B800011B0F0BCBB46B246A946A046F0BD00235A
:100B9000002406930794069680231B069C46654412
:100BA00007951AE7002399464B466333C62B1ED898
:100BB00004261E9B1B0526D52B0023430FD0644A19
:100BC000644B0698079904F0DBFE002879D00022D8
:100BD000614B0698079904F0C5FE002871D01C9B54
:100BE0004B4506DD4A46981A431E1C9303E0052632
:100BF000DFE700231C938023DB001E9A1A431E921A
:100C00000026002399461D9B9E4264D29F1B02230F
:100C10001E9A1A400A921E9A134202D0002E00D049
:100C200000274B46002B07D022002B00069807997F
:100C300004F037FE069007910022002308980999D6
:100C400004F090FE002848D1444B1E9A13400493B0
:100C500003971C9B0293069B079C009301944346B9
:100C60000C9A5146584600F087F8002E00D187E7CD
:100C70001E9B9B063DD54525441C4346020051461C
:100C80002800D8474B46DA179B1853400522059297
:100C9000013E0496002203920A3202924A46D00F85
:100CA000019000934346220051465846FFF78AFDC3
:100CB0000A9B002B00D163E702005F460C9E1D9D3E
:100CC00054E01C9B002B9ED00D9B002B9BD01C9BAB
:100CD000013B1C9397E7002799E7069C079D22009C
:100CE000290080200006844661440B000692079389
:100CF000AAE76525C0E7C046FFFFEF7FFFFFEFFFD4
:100D000001FCFFFF0000F03FFB799F501344D33FED
:100D1000B3C8608B288AC63F0000F83F61436F6309
:100D2000A787D23F71A379094F930A400000E03FA3
:100D30001655B5BBB16B0240EF39FAFE422EE63FC5
:100D4000FF03000000002C40000024400000184079
:100D50002D431CEBE2361A3F80842E41FFF7FFFF44
:100D6000541C434651462020B8472200931BAB42F7
:100D7000F6D3100004E7C046F0B5DE4657464E46AF
:100D80004546E0B595B00690079193469946209F59
:100D90001E9A1F9B1000190004F0FFFD002831D19E
:100DA00001225242BF4B1E981F9904F0DBFD002820
:100DB00037D101225242BC4B1E981F9904F0E8FD26
:100DC00000283DD10022B94B1E981F9904F0E0FD88
:100DD000002850D10022B64B1E981F9904F0C2FD86
:100DE000002848D1002200231E981F9904F0BAFD64
:100DF000002850D100239846229B5B0500D4B6E022
:100E0000002458E0229B0393219B02930323019328
:100E1000A84B00934B465A4607990698FFF7F2FBFA
:100E20000EE1229B0393219B029304230193A24B87
:100E300000934B465A4607990698FFF7E3FBFFE0FD
:100E40000423229A1A4022990B4210D09B4B002A6D
:100E50000FD00422229903912199029101920093CB
:100E60004B465A4607990698FFF7CCFBE8E0944BAF
:100E7000EDE70322EEE7229B0493219B0393029765
:100E80001E9B1F9C009301944B465A460799069857
:100E9000FFF768FDD4E01E9A1F9B0020002104F09C
:100EA000EEFC1E901F9101239846A5E70CAB302263
:100EB0001A55013F01341F2C01D8092FF6D81E986E
:100EC0001F9904F093FD050004F078FD02000B006B
:100ED0001E981F9904F0D3FCFA007A4B9B181A68ED
:100EE0005B680A920B9304F0FAFC0890099104F0F5
:100EF000A1FD060004F05EFD02000B0008980999B0
:100F000004F0BDFC0890099100226F4B04F040FDF5
:100F100000282ED00136300004F04CFD02000B00FA
:100F20000A980B9904F024FD002801D00135002611
:100F3000002F2CD1280004F041FD02000B001E9868
:100F40001F9904F09CFC06000F0000225E4B04F089
:100F500009FD002846D100225B4B3000390004F027
:100F600017FD00283ED1EB073CD501353AE00627B6
:100F700046E70022544B0898099904F0F3FC002836
:100F8000D6D1002E01D0F307D2D50136D0E7AA463C
:100F90001F2C11D8013F0A21300004F035FA651CDE
:100FA00030310CAB19550A21300004F02DFA092E0E
:100FB0000ED906002C00EBE755461F2C0CD87B1EE3
:100FC000002F09D00CAA302111551F000134F4E77D
:100FD0002B0055461C00F0E71F2C03D80CAB2E222B
:100FE0001A5501341F2C10D80A21280004F0E4F906
:100FF000661C30310CAB19550A21280004F0DCF9CD
:10100000051E01D03400EDE734000323229A13407B
:10101000012B1CD01F2C06D84346002B32D00CAB22
:101020002D221A550134229B0393219B0293019494
:101030000CAB00934B465A4607990698FFF7E2FA25
:1010400015B0F0BCBB46B246A946A046F0BD219BF8
:10105000002B13D04346002B02D10C3313420FD088
:10106000219B013B2193190003E00CAB30221A5560
:1010700001348C42CED21F2CF7D9CBE72199F8E767
:101080002199F6E7229B5B0704D50CAB2B221A555E
:101090000134C8E7229B1B07C5D50CAB20221A558B
:1010A0000134C0E7FFFFEFFFFFFFEF7F65CDCD41CC
:1010B00065CDCDC10064001004640010F863001019
:1010C000F4630010F06500100000E03FF0B5DE466C
:1010D00057464E464546E0B593B082468B4690460D
:1010E0001193002900D1EBE200275546119B187897
:1010F000002800D1E7E2252809D07C1C43463A00AD
:101100005946A847119B013311932700EEE701339D
:1011100011930024119A11780B00203BD8B21028AB
:1011200003D88300D048C3589F460B00303BDBB246
:10113000092B2CD92A292FD000230A93119B1A7826
:101140002E2A39D000239A46119A1378683BD9B2D7
:10115000122976D88B00C549CB589F4601231C43E2
:1011600001321192D6E702231C4301321192D1E7DA
:1011700004231C4301321192CCE708231C430132A3
:101180001192C7E710231C4301321192C2E711A844
:10119000FFF726FA0A90D1E71C9B1A1D1C921868CB
:1011A000002804DB0A90119B01331193C6E7022348
:1011B0001C4343420A93F6E78022D20014435A1C90
:1011C00011925A781300303BDBB2092B04D92A2A3A
:1011D00007D000239A46B7E711A8FFF701FA824625
:1011E000B2E71C9B1A1D1C921868002804DB82467B
:1011F000119B01331193A7E70020F8E780235B00E0
:101200002343511C119152786C2A01D01C0018E024
:10121000C0239B001C430131119112E08023234322
:10122000511C11915278682A01D01C0009E0C0239A
:101230001C430131119104E080235B001C43013207
:101240001192119B18780300253BDAB2532A00D97A
:101250002CE29300864AD3589F4680239B001C4370
:1012600001321192EDE780235B001C4301321192A1
:10127000E7E7782809D0582838D06F2838D0622876
:1012800038D010239C430A2600E01026582833D07B
:10129000692803D0642801D00C229443630501D54A
:1012A0000122944369282AD0642828D0A30500D5B8
:1012B0009FE0E30500D5B8E0630600D4CAE01C9ABD
:1012C000111D1C911168FF220A4005940A9B04938A
:1012D00053460393029600230193009243463A003B
:1012E00059462800FFF76EFA070027E01026CDE7E1
:1012F0000826CBE70226C9E720221443C8E7A30546
:1013000020D4E30550D4630666D51C9A111D1C91A8
:101310001168FF220A40D317D118594005940A9B3F
:101320000493534603930296D20F019200914346D1
:101330003A0059462800FFF745FA0700119B013390
:101340001193D3E61C9BDA1D07218A431100083153
:101350001C91116853689C46DB170C930D930C9AF3
:101360000D9B100048400E90624653400F930E981C
:101370000F990C9A0D9B801A99410E900F91089429
:101380000A9B0793534606930496002305936346EE
:10139000DA0F02920090019143463A005946280024
:1013A000FFF76EFA0700C9E71C9A111D1C9112681D
:1013B000D317D118594005940A9B049353460393BD
:1013C0000296D20F0192009143463A0059462800F6
:1013D000FFF7F8F90700B1E7230605D51C9A111DA0
:1013E0001C910023D25E96E71C9A111D1C91126875
:1013F00091E71C9BDA1D07218A43110008311C91DB
:1014000008940A9B0793534606930496002305937A
:101410000293136854680093019443463A00594676
:101420002800FFF72DFA070088E71C9A111D1C9170
:1014300005940A9B04935346039302960023019359
:101440001368009343463A0059462800FFF7BAF95B
:10145000070073E723060DD51C9A111D1C91126815
:101460001204120C31E7C0460C64001050640010E6
:101470009C6400101C9A111D1C91126825E74628D7
:101480001AD01C9B0733072293431A0008321C9280
:1014900004940A9A0392524602925C681B68009375
:1014A000019443463A0059462800FFF765FC0700BF
:1014B000119B0133119319E620231C43E1E76728B0
:1014C00001D0472802D180231B011C43452801D0AD
:1014D000472801D120231C431C9B07330722934339
:1014E0001A0008321C9204940A9A039252460292FD
:1014F0005C681B680093019443463A0059462800F3
:10150000FFF730FA0700119B01331193EEE5022338
:101510001A002240924623421FD001241C9B1A1D10
:101520001C927A1C9146187843463A005946A847BF
:101530005346002B16D1119B013311934F46D5E52D
:10154000561C434659462020B847230032005C1CF5
:101550009D42F5D83D001700E0E701233A002F0037
:101560000A9DF4E74A46A9460A9D06E0571C4346F1
:1015700059462020C84734003A00661CA542F5D8D9
:101580004D469146D7E71C9B1A1D1C921B68994635
:101590005346002B00D1013B4E4601E001361300BB
:1015A0003278002A02D05A1E002BF7D14B46F21A8D
:1015B00010928023DB0026001E401C4203D05245BF
:1015C00001D95346109302231A0022400B92234262
:1015D00005D03A0037004C46A946554620E03A006F
:1015E000109B5F46B3462E0006E0551C434639006B
:1015F0002020B04723002A005C1C0A999942F4D8A5
:1016000035005E46BB46109437004C46A946554609
:1016100006E01D000134561C43465946C8473200B7
:101620002078002804D0002FF4D06B1E002DF0D1BC
:1016300017004D460B9B002B03D1119B01331193D7
:1016400054E50A9F109B06E0561C4346594620204D
:10165000A847230032005C1C9F42F5D81700ECE736
:1016600021231C431C9B1A1D1C921B68009305948C
:1016700008230493534603931023029300230193FA
:1016800043463A0059462800FFF79CF80700119B93
:10169000013311932AE57C1C43463A005946252024
:1016A000A847119B0133119327001FE57C1C43467B
:1016B0003A005946A847119B01331193270015E5BD
:1016C0000A4B9A4610E5AA46474502D343465A1E9E
:1016D00000E03A00434659460020D047380013B096
:1016E000F0BCBB46B246A946A046F0BDD1050010ED
:1016F00000B585B0029003910121009313004A4286
:1017000002A90248FFF7E2FC05B000BDD3050010B6
:1017100070470000014B00221A70704775220020AC
:101720004B79FF2B0CD18B79002B0BD1CB79012B73
:101730000AD1082A0AD98A78054B1A70092000E0D4
:10174000002070470020FCE70020FAE70020F8E7BF
:10175000752200200120704710B5012928D1117988
:1017600053791B020B43134909788B4201D00020A7
:101770001FE05378012B03D0022B12D0002018E079
:101780009178D3781B021943DB0507D5480A4A0A2A
:1017900001231A407E33194001F00CFA0120404227
:1017A000F5E764220021002003F0C6FC012000E0E0
:1017B000012010BD752200200048704758660010B7
:1017C00010B51400012910D15378012B0FD11279D3
:1017D00063791B021343072B01D0002006E09F33DF
:1017E000044A210002F0BCF900E0012010BD0020F5
:1017F000FCE7C0467C660010012303700048704778
:101800004066001010B50B784878000218438A78BB
:1018100012041043CB781B0603439622D200934256
:1018200000D010BD012000221100404201F0C2F999
:10183000024B1860024B19607047C046BC1B002069
:10184000C01B002010B500F0C9FD0E4A002312187D
:101850004B41002B12DB0C4804F076FD00280CD025
:1018600001200021404202F059F8002002F0ACFAB9
:101870000028F5D1044804F03FFD10BD012252427A
:10188000024BE8E740420F0058220020FFFFFF7F95
:1018900010B5024B187800F0B7FE10BD762200207C
:1018A00070B5164B1B68002B1FD0EFF3108272B679
:1018B00019680029FCD0BFF35F8F10494A600023EC
:1018C0000F4803700968BFF35F8F0B6082F31088C5
:1018D000002400250B4B187800F072FE002808D178
:1018E000002400252000290070BDFA24A400002552
:1018F000F0E7044B187800F087FEF3E73020002073
:10190000772200207622002010B584B000212A48DA
:1019100004F00AFD00281FD1284B1B68002B19D0AA
:10192000EFF3108272B619680029FCD0BFF35F8F05
:1019300022494A602248037801246340DBB2012433
:1019400004700968BFF35F8F0020086082F310887D
:10195000002B17D104B010BD01200021404201F03E
:10196000DDFF002002F008FA0400134804F0C4FC74
:10197000002CEFD0134B1B68002BEBD0124A1068E1
:101980009847E7E700F090FB040000F027FDFA22FB
:101990009200002312184B41002B09DB0121029118
:1019A0000021019109490091200000F0EBFBD1E7F3
:1019B00001225242064BF1E758220020302000203D
:1019C00077220020BC1B0020C01B0020A1180010A3
:1019D000FFFFFF7F10B584B0D0231B061C6800F00A
:1019E00063FB00F029FCA0422CD12D4B1B7802F0A8
:1019F00007FE2C4B1B68002B2AD0012000F0E2FFD1
:101A0000C0B2294C2070294900F01CFE2078012129
:101A100000F0F0FD052000F007FE041E1CD00120A0
:101A200000F062FD0100224801F02AF8002221495D
:101A3000052000F031FE01211F48FEF763FD200064
:101A400004B010BD1D4B1E4AC6211E4804F0E2FB27
:101A5000144800F0D3FFD0E708220021144804F016
:101A6000C7FB00F021FB040000F0B8FCFA22920052
:101A7000002312184B41002B0DDB012102910021A4
:101A8000019111490091200000F07CFBC043C40F7C
:101A90000028D4DACFE7012252420C4BEDE7C046D2
:101AA0006C760010582200207622002009190010C0
:101AB0003020002091180010C00B00202467001077
:101AC000AC6700102C670010A1180010FFFFFF7F0B
:101AD00010B5002002F02CF910BD000070B5050013
:101AE0000C00FFF7F5FF002834D0002002F044F985
:101AF000002832D000F072FC1B4A002312184B4120
:101B0000002B19DB194804F01FFC002828D0FFF730
:101B1000DFFF002804D0002002F02EF900280FD1AA
:101B200001200021404201F0F9FE032464420F48E5
:101B300004F0E2FB200070BD012252420C4BE1E7B1
:101B400022002900002002F027F9041EEFD103240F
:101B50006442ECE703246442ECE703246442E9E7CF
:101B600003246442E6E7C04640420F0058220020AA
:101B7000FFFFFF7FF0B5C64600B580460C0000F0C1
:101B80002DFC314A002312184B41002B07DB2F4854
:101B900004F0DAFB002806D180BCB846F0BD012273
:101BA00052422B4BF3E7FFF793FF002849D1294B13
:101BB0000020002118605960244804F09DFBEBE7E9
:101BC00001200021404201F0A9FE002002F0FCF8B3
:101BD000FFF77EFF0028EFD0002002F07BF90028FD
:101BE00020D0A542E8DA661B002002F073F902005B
:101BF000864200DC3200002AE2D043465919002018
:101C000002F04AF9060001200021404201F086FE60
:101C1000002002F0D9F8AD1900F0E0FB0D4B186080
:101C20005960DEE700F0DAFB0A4B1E685F680A4A7B
:101C3000002392197B419942BED8D2D19042D0D98B
:101C4000BAE70025CDE7C04640420F0058220020E9
:101C5000FFFFFF7F180E002020A1070000487047FB
:101C60003C68001000487047E867001010B5040099
:101C7000154B1B78002B0ED0002C11D1134B144A9E
:101C80005A80012301335B001BB2C0229200134330
:101C90000E48038010BD11210B4800F00DFFEBE74B
:101CA000052C0ED8A4000B4BE4580023122BE9D8C6
:101CB000E25C002AE6D00133590004484252DBB20C
:101CC000F4E70020E6E7C04660220020F41B002075
:101CD0000904000050680010000408437047000029
:101CE0000A4B1A68EFF3108172B61368002BFCD010
:101CF000BFF35F8F054B1B68BFF35F8F00221A6035
:101D000081F3108840BF002000217047542200203A
:101D1000F0B5DE4657464E464546E0B585B0EFF392
:101D2000058303221A4093469200B34BD35898463A
:101D30001B785B4507D101235A4693401A00039351
:101D4000AE4B1A6015E1AE4BAE4A9221AE4804F09C
:101D500061FA5B004B44DB004246526992469A446A
:101D600053469E68DF68A94800F030FB801BB941EC
:101D7000002900DA07E1002F60DB53461C69A44B01
:101D80009C4244D043460820185E5346598889B285
:101D9000FFF7A2FF53465969A04704000D00230036
:101DA0002B434BD0002D3CDA30003900001BA941F9
:101DB000009001915346009801999860D9600025E0
:101DC0005D5F002D00DADEE043465C696B005B1965
:101DD000DB00E3189A68DB68801A9941002900DA71
:101DE000D1E043461D81474608370023FE5E002EA2
:101DF0001FDB7500AD19ED006519009A019BA868FD
:101E0000E968121A8B41002B13DB2F00EDE75346D4
:101E10005C6920002369984700280FD06568246812
:101E2000BDE77A4800F0D2FA0019694100900191AB
:101E3000C0E753461E804B463B80A4E05346002239
:101E40009B5E424613811269EFF3108372B61168EC
:101E50000029FCD0BFF35F8F42460221525E5146FB
:101E60000A804246494651801269BFF35F8F0021C4
:101E7000116083F3108886E043461A69EFF31081FE
:101E800072B61368002BFCD0BFF35F8F43469B886C
:101E90001BB2994601235B42424693801369BFF30C
:101EA0005F8F00221A6081F3108818E0260000235B
:101EB000F55E002D0BDB6C006419E4003C19009A00
:101EC000019BA068E168121A8B41002BEEDA4B46A9
:101ED0003380634600229B5E994663461D804B46D5
:101EE000002B56DB43465F694B465B004B44DB00EF
:101EF0009C46BC446346DC689B680093019446465C
:101F00000836D4E7002342469371414608314346E0
:101F10000820185E11E001225242D317A260E3604C
:101F2000434608229B5E834206D00D80434608222A
:101F30009B5E2380434618812800431C2DD04346D6
:101F40005A6943001B18DB00D418D55E63881BB2A6
:101F5000002BE0DB2100EFE75B4604339B002B4ABC
:101F60009C502A4800F032FA241A8D41002D3ADCA8
:101F700037D0264B039A5A63434608229B5E994604
:101F8000002B00DBE5E643469B881BB2002B00DB01
:101F900072E743469B79002BB4D1434608229A5EF0
:101FA000002A20DB53009B18DB004246526994460E
:101FB00063449C68DD68631C01D16B1CD1D0134B5A
:101FC000996A601A5A4604329200D3585B1A9842B2
:101FD000C2D30E4B1A6A012359468B401342C0D11B
:101FE000BAE7002CC5D040BF05B0F0BCBB46B24636
:101FF000A946A046F0BDC046382000203C700540F0
:1020000068680010246900109468001000400540C2
:10201000111D0010F8B5CE46474680B5060088462B
:1020200091461F00C16000F051FA1B4B9C46604472
:10203000800030614B463370BBB27381D0221206F0
:1020400012787270012252423281B2809B187380E2
:10205000002406E0631E65002D19ED0072695353DC
:102060000134BC42F6D34B469A000C4BD6500124A7
:102070004B469C4043461C620949484600F0E2FA40
:102080000121484600F0B6FA064941440C60C0BC44
:10209000B946B046F8BDC0464000003438200020A4
:1020A000111D00103820000010B5064B1B69002BD5
:1020B00001D0044810BD044B044A6521044804F0D3
:1020C000A9F8C046D80B0020E86800100C69001081
:1020D00094680010F0B5C64600B504000069EFF33F
:1020E000108C72B601680029FCD0BFF35F8F02210B
:1020F000665E7500AD19ED00616988464544002EA5
:1021000002DB0020295E61802169BFF35F8F002020
:1021100008608CF31088002E2EDB06992961079940
:102120006961AA60EB606B8801335B04590C002B7A
:1021300000D1012169803000FFF7CEFD2269EFF365
:10214000108172B61368002BFCD0BFF35F8FA38899
:102150002B80A6802369BFF35F8F00221A6081F372
:102160001088E368217801328A4005498C4663442F
:102170001A6080BCB846F0BD01204042F9E7C04675
:102180003C20000070B582B0060014001D0008ABB2
:102190001B78002B07D100F021F922002B00121A26
:1021A0008B41002B0ADB079B0193069B00932200C7
:1021B0002B003000FFF78EFF02B070BD0020FBE760
:1021C00010B5030008145A8990422FDA4200121801
:1021D000D2005869844662441C69EFF3108C72B6D1
:1021E00020680028FCD0BFF35F8F508880B20904BC
:1021F000090C884212D000201A69BFF35F8F0021BA
:1022000011608CF31088002811D0DA681B78013136
:102210009940074B9C466244116008E00549084319
:1022200080B2508001229A710120E5E7002010BDA4
:102230003C2000000080FFFF40787047F0B5CE469C
:10224000474680B585B005000C00EFF30583002BF1
:1022500015D0474B5B6A8B4209D3454A926A82424A
:102260000BD28B4201D0012002E0002000E00020D0
:1022700005B0C0BCB946B046F0BD0120F8E7FFF795
:1022800013FFC3689946037898462E0027004846F6
:1022900000F09CF802000B00B61A9F41434604333D
:1022A0009B004A469B58181A0023BB420FDC0CD0F7
:1022B00020BF2F4B5B6A9C4224D82D4A926AAA42C7
:1022C00022D29C421CD00120D2E7B042F0D9FFF7C5
:1022D000EBFE002302930193264B00932A00230078
:1022E000FFF750FF061E11DD214B5B6A9C4221D88F
:1022F0001F4A926AAA4232D29C4219D001231AE0A4
:102300000020B5E70020B3E70120B1E7184B5B6A76
:102310009C4209D8164A926AAA4207D29C4201D02E
:102320000120A5E70020A3E70020A1E701209FE707
:10233000002300E00023002B00D120BFFFF7B4FEF4
:102340003100FFF73DFF0A4B5B6A9C420BD8084AFD
:10235000926AAA4209D29C4203D0012088E7012355
:10236000E9E7002084E7002082E7012080E7C046FB
:1023700000400540E11C0010004870470040054047
:1023800010B50B4B1B69002B04D00A21094800F043
:102390002DFB10BDFFF7F0FF0400032100F00CF847
:1023A0001023032221000248FFF734FEEDE7C04668
:1023B000D80B00205422002010B5024A024800F039
:1023C00043F810BD3C690010C41B00200200436AA2
:1023D000906A1900536A9942FAD1704710B50248C1
:1023E000FFF7F4FF10BDC046004005400FB400B534
:1023F00083B00848FEF7B0F8049B002B07D005A96E
:1024000001911800FEF7B8F80348FEF7A5F801207F
:1024100003F0FAFE6069001070690010EFF310809D
:1024200072B6034B1B68002BFBD0BFF35F8F704766
:102430002C0100D0BFF35F8F024B00221A6080F3A3
:10244000108870472C0100D0F8B506000C0015006C
:10245000FFF7E4FFE308F718F15C072222400123AD
:1024600093400B4205D1DBB20B433B70FFF7E2FF19
:10247000F8BD21002800FFF7B9FFF0B583B00600D2
:10248000019114001F00FFF7C9FF00E00134BC42B6
:102490000CD8E308F518F35C0721214001228A409B
:1024A0001A42F3D1D2B21A432A7001E001246442E5
:1024B000FFF7C0FF002C02DB200003B0F0BD019B42
:1024C000002BF9D00898FFF791FF0000054A10781B
:1024D000431CDBB21370172B02D9130010221A70A1
:1024E0007047C046F00B002000B583B00100044BDC
:1024F00000931F2318220348FFF7BFFF03B000BD5E
:1025000074690010C81B0020002307E0054A9A18D0
:102510009200BFF35F8F0021116001331F2BF5D9AB
:102520007047C04640000034074B9B681030800065
:102530001950BFF35F8FBFF35F8F044B0021196009
:1025400082F310887047C04600ED00E0240100D0FF
:102550000048704700E400E010B5FFF7F9FF0023E2
:1025600002E0034A04C00133072BFAD910BDC0466C
:102570008080808010B5091A081F0B4B9C4661446F
:102580000A4A914208D8C30706D440104005400DBE
:10259000074B184380B210BD8721064B064A4900FD
:1025A000064803F037FEC046FC070000FE0F00009F
:1025B00000E0FFFF90690010B06B0010C0690010D0
:1025C00001238340034A10681840431E9841C0B25B
:1025D0007047C04600E100E0002A05D0044BC0224D
:1025E0005200995019607047014A8023D150FAE790
:1025F00000E100E010B50A001F23034001219940CB
:102600004009FFF7E9FF10BD01238340014A136031
:102610007047C04600E200E0024B9B68103080002B
:10262000C058704700ED00E010B5FFF7F5FF044B10
:10263000C31A00202F229A424041C0B210BDC046AA
:10264000F40B002070B504000D00EFF3108672B695
:102650000C4B1B68002BFBD0BFF35F8F2000FFF7F4
:10266000DBFF094B984201D0A84205D13200290076
:102670002000FFF759FF70BD044B054AED210548C6
:1026800003F0C8FD240100D0C1010010186A001039
:10269000E46B0010C0690010F0B5DE4657464E46A8
:1026A0004546E0B589B0814601911500EFF3108BE6
:1026B00072B6754B1B68002BFBD0BFF35F8F734B5B
:1026C0000027DF57002F3FDB7C00E419A40070488F
:1026D00024180622A2566D4B1A706E4B9A684B4610
:1026E00010339B00D35898461B1A2F2B3AD96A4BAC
:1026F000984530D105AE694B33807B009A46D81996
:102700008000634B9846404402306549FFF732FF32
:102710007080644BB380FF23B371F571019B079305
:102720005744BF0047440ECE0EC701231C43A046AA
:102730005A4641464846FFF7F7FE09B0F0BCBB4693
:10274000B246A946A046F0BDBE21574B574A4900A4
:10275000574803F05FFD8421564B544AFF315448DB
:1027600003F058FD012342469A439246101A0C2169
:1027700002F04AFE00290FD153460026DA79AA4218
:1027800012D90621595600290DDB4A005218920031
:102790001E003F4B9B18F1E7CA21474B434A4900B3
:1027A000434803F037FD1E00002E3BD005AB434AE3
:1027B0001A80813A5A800623F3560293002B17DAC7
:1027C0003F4805AB9A469880029A9A71DD71019A4A
:1027D0000792301D2100FFF7CDFEB080B7717B005E
:1027E000DB199B002A4FFF18534607CB07C79FE70B
:1027F0007800C0198000264BC0180430321DB38801
:10280000D90A1C2907D15B05591502314900511815
:10281000FFF7B0FED5E78E212A4B2B4A490024480A
:1028200003F0F8FC05AE1D4B33807B000293D819F2
:102830008000174A9046020042440392901C1849B7
:10284000FFF798FE7080039A101D5146FFF792FE25
:10285000B0801E4B52464146521A524153431B0D03
:10286000B371F571019A0792029B9C466744BF00C1
:1028700047440ECE0EC7114B52461380813B538006
:1028800001231C43A04653E7240100D074220020FA
:10289000F40B002000ED00E0C101001000A1FFFFDB
:1028A000240C002001BDFFFF506A0010CC6B00100B
:1028B000C0690010786A0010A06A0010014800008A
:1028C00001BD0000246B0010BC6B0010AAAA000020
:1028D00070B5012101432C4BCB1A2F2B28D8EFF3D5
:1028E0000583002B2AD0EFF3108C72B6274A1268AA
:1028F000002AFBD0BFF35F8F254A0400224D641BE2
:1029000064416243120D54B2224A92689B00D2582D
:102910008A4219D00022032A30D853009B189B000A
:102920001949CB189B795BB2A3421DD00132F2E763
:10293000194B1A4A1A491B4803F06CFC1A4B174AE8
:102940001A49184803F066FC124A92681849D15097
:10295000184B1A7882711C70BFF35F8F0B4B0022EB
:102960001A608CF3108870BD0D005300991889000F
:102970006918FF268E71104A8A80E9E70F4B074AD3
:102980000F49084803F046FCF40B0020240100D056
:10299000AAAA000000ED00E03C6B0010946B001050
:1029A0007F020000C0690010646B0010820200000A
:1029B000C10100107422002001BDFFFF706B0010E8
:1029C0009302000000B583B00100064B009305237D
:1029D00000220548FFF751FD002801DB1F23181ACC
:1029E00003B000BD786B001078220020024B9C469B
:1029F00061448900016070474000003410B5040054
:102A0000FFF764FD01002000FFF7F0FFFF232371B3
:102A1000BFF35F8F10BD10B50400FFF757FD010035
:102A20002000FFF7E3FFFF23237100236371BFF34F
:102A30005F8F10BD10B50D4C09E00D4B0D4A1A21EA
:102A40000D4803F0E7FB2000FFF7D8FF08340B4BDD
:102A50009C4209D22368002BF5D0012BEDD1200038
:102A6000FFF7D9FF0834F2E710BDC046900C0020F4
:102A7000006C0010EC6C0010206C0010980C002012
:102A8000034B9C46614489000160BFF35F8F704730
:102A90004000003410B504000120FFF725FD0100BF
:102AA0002000FFF7EDFF10BD10B5024800F034F82C
:102AB00010BDC0464820002010B5002901D00023D9
:102AC0000AE0114B114A3B31114803F0A3FB0024EB
:102AD0000DE03732C25401334A1E9A420FD90F2BF0
:102AE0000DD85A080B4CA25CDC07F0D40424224118
:102AF00014000F222240092AEBDC3032EAE7C0182A
:102B00000023037010BDC046006D0010686D0010FA
:102B1000086D00104820002070B588B0040004AD96
:102B2000002604960922002105A803F061FB009607
:102B30000922002101A803F05BFB4B232B700D221F
:102B40006946280003F0D0FB002304E05A1D6946C3
:102B50008A5CE2540133072BF8DD08B070BD10B574
:102B6000010018231B8814221088984710BD10B547
:102B7000010018231B8816221088984710BDF0B555
:102B8000C64600B507000E0000250123984600E068
:102B90000135B5420AD2AC003C192068FFF7DFFFCF
:102BA00020600028F4D100239846F1E7404680BC1D
:102BB000B846F0BD70B504000D000648FFF7CFFF22
:102BC0000300002C03DB0120A040290098470020CF
:102BD000FBE7C0465542000002007F201040D209AA
:102BE000400080184001014BC0187047281C00208D
:102BF00010B5038B3F333F229343022915D0124C6B
:102C00002268C260D31823609C0610D10F4C62402A
:102C1000634080246401A3420FD8890611438023B6
:102C20001B0619434368196010BD5B00E7E7084BBA
:102C3000084A5421084803F0EDFA084B054A56218A
:102C4000054803F0E7FAC0462C2000200000105091
:102C5000B06F0010E4700010E06F001050700010B2
:102C6000F8B505000E001400FFF7B6FF7F232B40D8
:102C7000EF0985707A427A4142700022C270068361
:102C8000C476012F0DD0DA0012498C46624482606E
:102C9000826800211160002B09D143600E4BC36094
:102CA000F8BDDA000D498C4662448260F0E7012FDE
:102CB00009D0013BDB000A4A94466344436021008B
:102CC000FFF796FFECE7013BDB00064A94466344BE
:102CD0004360F4E784001050000110508000105051
:102CE0000C0010500800105070B50C001500FFF7D4
:102CF00073FF2A00210000F00DF970BD10B5002807
:102D000004D101210520FFF775FC10BDD521034B2F
:102D1000034A4900034803F07DFAC046987000104A
:102D2000D4700010E06F001010B5002805D100220B
:102D300000218020FFF7D8FF10BDDB21024B034AA2
:102D40004900034803F066FA98700010C470001040
:102D5000E06F0010024B80225202DA647047C046D6
:102D60000020115070B5041E26D100F0ADF8164DAC
:102D70000C23AB67FF2215490520FFF78DFC40228D
:102D80000021134803F034FA002240210020FFF70D
:102D900067FF002240218020FFF762FF03F0DCFA8A
:102DA00001232B6480239B05EB649023094AEA509E
:102DB0002000FFF7CFFF70BD8621074B074AFF3188
:102DC000074803F027FAC04600001150C504002050
:102DD000281C002010D0010098700010F87000101E
:102DE000E06F00100B785B0602D14B78052B00D00A
:102DF00070478A78014B1A60FAE7C046000011500C
:102E000010B50C0000280DD1097963791B020B4322
:102E10005B05590DE2789207920FA078FFF720FF2B
:102E2000012010BDFC21034B034AFF31034803F08E
:102E3000F1F9C04698700010B4700010E06F0010F7
:102E400010B503F089FA10BD10B504000800110098
:102E50001A00002C03D1FFF747FF012010BD034BE0
:102E6000034A0449044803F0D5F9C046987000109D
:102E7000A47000100A020000E06F001010B50800F6
:102E80004B0605D1CB09012B0AD00222054B9A66CD
:102E9000FFF7A2FE80221201002103F07DFA10BD8F
:102EA0000122F3E70020115010B508004B0600D1B5
:102EB00010BDFFF791FE0023C3700022014903F00B
:102EC0006BFAF5E7FFF7FFFF10B580235B040C4AB0
:102ED00013600C4A13600C4B1A6880235B04934305
:102EE000F9D10A4C9C220021200003F081F98022B4
:102EF00052010021064803F07BF90923636710BDE6
:102F000000E0004000F0004008C000400000115008
:102F10000000105070B504000D001600837E002BD9
:102F200017D1A6820023E3820133A3762561200016
:102F300003F02AFA002804D0094A9023802189024C
:102F4000D150200003F0C8F9002805D001232377D1
:102F500070BD03F011FAE4E7200003F005FAF7E78B
:102F60000020115070B50500002414E063001B1907
:102F7000DA00194B1B689B1806E0230017E05A0083
:102F8000D218D200154B9B18002B12D05B6828007A
:102F900098470134E4B2124B1B785A1CA24209DB59
:102FA000104A002AE9D0A342E0D8E31ADBB2012B91
:102FB000E5D970BD0C4C53220021200003F018F914
:102FC000E01C1022FF2103F013F92000133020220F
:102FD000FF2103F00DF9ECE73C0E0020A472001075
:102FE00071220020F9170010E416002010B5FFF739
:102FF000B9FF00F0EFFD10BD70B505000C00160024
:10300000C86800F0F1FDE36832000121280098470C
:1030100070BD0000F0B5DE464F464646C0B584B0F0
:1030200001900139C8B2FEF71DFE002800D196E0DC
:103030004678022E00D094E0C5796A1101235049E8
:103040001A4014010A781027BA4322430A70AD11BE
:103050002B405B01D2B22024A24313430B70070024
:1030600009378278C478240214430419A7426FD226
:103070007B780B2B0AD001239B467B78042B00D056
:1030800076E0E31B9BB29946002523E0FB789B4644
:103090003B78FF18F1E76B005B19DB00394A1268D7
:1030A0009046984407E02B0021E05A00D318DB003B
:1030B000354A904698444346002B5BD04A46390037
:1030C00001989B6898470390082801D9814512D23E
:1030D0000135EDB22D4B1B785A1C0295AA422FDB0D
:1030E0002B4A002ADFD0AB42D5D8EB1ADBB2012B3A
:1030F000DBD9002036E05B46012B10D000218B4548
:1031000014D9BB785B18DBB21D4AD218D278FF2ADB
:1031100032D11B4AD318DD700131C9B2EFE7434603
:103120009A681C4B9A42E9D1B346E7E714482B0052
:10313000039D2A003900133001F0F0FAAC466744D1
:10314000124B1B780133029A9A428FDD002009E06E
:10315000114B002B12D000E000BF012002E0002044
:1031600000E0002004B0E0BCBB46B146A846F0BD7C
:103170000020F7E70020F5E70020F3E70120F1E762
:10318000E41600203C0E0020A472001071220020E2
:10319000F9170010214000100000000070B5050074
:1031A0000C00CB7888780F2B50D89A002E498A587B
:1031B0009746FEF753FD020012232100280000F07D
:1031C000CFFC44E0294B002B42D0FEF7F5FA021E5B
:1031D00040D08178C3781B020B432100280000F007
:1031E000BFFC34E0022B09D0214B002B34D000E08F
:1031F00000BF0200002A05D1002028E0FEF732FDC2
:103200000200F7E79178D3781B020B4321002800D6
:1032100000F0A6FC1BE02379617909021943FEF74F
:1032200025FD021E1AD003782100280000F098FC2A
:103230000DE0104B002B13D000E000BF021E11D098
:1032400003782100280000F08BFC00E0002070BD16
:103250000020FCE70020FAE70020F8E70020F6E76E
:103260000020F4E70020F2E718720010B9170010F0
:103270000000000000000000024B5878431E9841F7
:10328000C0B27047E4160020024B18784007C00F08
:103290007047C046E4160020034B1878FF38431EE1
:1032A0009841C0B27047C046600C002070B5040061
:1032B000FFF7F2FF061E01D0300070BD532200213F
:1032C000244802F095FF244D2800FFF797FB234B7D
:1032D0001D60234D28001430FFF7DCFB280001F0AF
:1032E00072FD204B1D60204B002B04D01F48FEF7C1
:1032F00083FA1F4B186000250BE06B005B19DA00A6
:103300001B4B1B689B18002BD6D01B6898470135B8
:10331000EDB2164B1B785A1CAA4210DB124A002A47
:103320000BD0AB42E9D8EB1ADBB2012BC4D85A0060
:10333000D218D2000F4B9B18E5E72B00F5E70E4B98
:103340001C702000FFF70EFD2000FFF7D7FC0126C0
:10335000B2E7C046E41600209C1600203817002073
:10336000440C00203C170020F917001071220020A7
:103370003C0E0020A4720010600C002070B50C0000
:10338000094B1D788B7870221A4201D0002070BD45
:10339000064B9978200001F085F90028F7D021002C
:1033A0002800FFF72DFDF2E7600C0020E416002056
:1033B000F8B5CE46474680B581460C0017001E0082
:1033C000089B9846002504E0099A13702378E418B6
:1033D0000135AF4214DD6378052B16D1E1788907FA
:1033E000890FB14213D121004846FFF7C7FF0028DB
:1033F00007D0A378DA09012AE6D042461370E5E740
:103400000120C0BCB946B046F8BD0020F9E7002055
:10341000F7E7000010B57F200840C90940004018B8
:103420003030044908180330034B196801F0F4F8F0
:1034300010BDC046E41600203817002010B57F20CC
:103440000840C909400040183030044908180330CA
:10345000034B196801F008F910BDC046E4160020BE
:1034600038170020F8B5CE46474680B51948007891
:103470007F250D40CE096F00174CE419A419303494
:10348000E478E40704D50020C0BCB946B046F8BDD6
:10349000114CE419A4193027B946A1444C46E478EC
:1034A0000127BC4667463C4327004C46E770FFF7C0
:1034B000CBFC0028E8D16D00074B5D19AE19303602
:1034C000F37801229343F370F37803329343F3705C
:1034D000DAE7C046600C0020E41600207F220A4094
:1034E000CB09520003498918C9183031C878C00780
:1034F000C00F7047E416002070B50F4B18787F247A
:103500000C40CD0962000D4B9B185B193033DB7802
:103510009B0700D570BDFFF7B1FC6300074CE418B2
:1035200064193034E37802221343E370E378012214
:103530001343E370EEE7C046600C0020E416002061
:1035400070B50F4B18787F240C40CD0962000D4BED
:103550009B185B193033DB789B0700D470BDFFF7F5
:10356000A3FC6300074CE41864193034E3780222AA
:103570009343E370E378013A9343E370EEE7C04688
:10358000600C0020E41600207F220A40CB09520084
:1035900003498918C9183031C8788007C00F7047AF
:1035A000E4160020F0B5C64600B582B005000C0058
:1035B000002000F019FB237860221340602B00D11B
:1035C00087E1402B0FD02278D206D20E012A00D1FB
:1035D000CAE0022A00D111E1002A11D0002002B075
:1035E00080BCB846F0BDC64B002B00D173E118007B
:1035F00000F0FAFA220001212800FEF7E1F8EEE7D8
:10360000202B0AD0002B00D06BE16378092B00D966
:1036100069E19B00BB4AD3589F4623790F2B00D901
:103620005BE1B94AD318DB78B84A002A05D0B84A1A
:103630001278934205D39B1ADBB2012B08D90020E4
:10364000CDE75900CB18DB00B24A1168C91804E075
:103650005900CB18DB00B049C918002900D13EE160
:1036600022002800FFF7C8FCB9E7200000F0C2FAEA
:10367000A1782800FFF758FBA34A137802210B43D7
:1036800013700120ABE7A04B5B786A4606321370DB
:1036900001232100280000F063FA01209FE7A678AB
:1036A000994B5B78DBB2B34205D0974B5B78002B2C
:1036B00009D1002E13D1944B5E702100280000F038
:1036C00033FA01208BE72800FFF7BAFB8E4FBB7857
:1036D00098462800FFF746FC4346BB70E9E73100F7
:1036E0002800FFF797FC0028E5D178E721002800A3
:1036F000FFF754FD73E7A278E3781B021343012B15
:1037000001D000206BE7804A137808210B43137027
:103710002100280000F008FA012060E7A278E37891
:103720001B021343012B01D0002058E7764A13787F
:1037300008218B4313702100280000F0F5F90120C7
:103740004DE7714B1A785109920801230B40022171
:103750000A4013436A4606321380022321002800E0
:1037600000F0FEF901203AE723790F2B00D9BCE0E5
:10377000654AD318DB78654A002A05D0644A127876
:10378000934205D39B1ADBB2012B08D9002026E710
:103790005900CB18DB005F4A1168C91804E05900D2
:1037A000CB18DB005C49C918002900D19FE022003A
:1037B0002800FFF721FC002800D010E723786022C2
:1037C0001A4200D00BE763780A3B012B00D906E7C9
:1037D00000F00AFA63780A2B05D02100280000F0D7
:1037E000A3F90120FBE66B469A1D002313700133F9
:1037F0002100280000F0B4F90120F0E621797F22B1
:103800000A40CE097020084273D152003E48821807
:103810009219D27C3D48002805D03D48007882426C
:103820000ED3121AD2B2012A11D90026002B14D0BD
:10383000002E60D0220031002800FFF7DDFBCEE62D
:103840005600B218D20033480668B618EEE75600A4
:10385000B218D200304EB618E8E76378012B12D0C8
:10386000032B10D0002B01D00020B8E62800FFF772
:103870008BFE6B469A1D108002232100280000F069
:103880006FF90120ABE6A778E27812023A4304D13F
:10389000012B1AD02800FFF72FFE002E2DD022007A
:1038A00031002800FFF7A8FB002000F09DF9164A20
:1038B0003423D35CDB07D80F002B00D08FE6210028
:1038C000280000F031F9012089E62800FFF738FED2
:1038D000E3E7002083E6002081E600207FE6002069
:1038E0007DE600207BE6002079E6002077E60020D8
:1038F00075E6002073E6002071E601206FE6C04601
:10390000C117001058720010E4160020F9170010BB
:10391000712200203C0E0020A472001030B585B04A
:1039200000F073FE002808D105B030BD01AC20784E
:10393000FFF75CFB22795C4B9A705C4B1C686269F8
:10394000EFF3108172B61368002BFCD0BFF35F8FCA
:10395000A16101A9200001F0D9F96269A369BFF34F
:103960005F8F0021116083F310880028DCD001AB49
:103970005B78082BE1D89B004D4AD3589F4601AB9A
:103980001878FFF733FB4B4B002BD6D000E000BF7D
:10399000D3E7454B1A78012401210A431A703322D8
:1039A000995CA1439954995C042081439954013254
:1039B000995CA1439954995C8143995401AB18785F
:1039C00002A9FFF7EFFD0028B7D101AC2078002154
:1039D000FFF754FA20788021FFF750FAADE701ABEA
:1039E00019797F220A40CC0950002F4B1B181B1954
:1039F0003033D8780125A843D870D8780335A84348
:103A0000D870002A1FD05200274B9A181219D37C65
:103A1000294A002A05D0294A127893421AD39B1AC0
:103A2000DBB2012B00D97FE75A00D218D200244B19
:103A30009B18002B00D177E71C6901A84279039BF2
:103A40000078A04779E701A84279039B007800F04D
:103A5000DFF872E75A00D218D2001A4B1B689B1885
:103A6000E7E7114B1B78DB0700D466E7164B002B0A
:103A700000D162E70C4B18780007C00F00E000BFD0
:103A80005BE7094B1B78DB0700D456E70F4B002B95
:103A900000D152E700E000BF4FE7029B002B00D1AE
:103AA0004BE70398984748E7E41600203C170020AE
:103AB0008072001000000000F91700107122002031
:103AC000A47200103C0E0020000000000000000066
:103AD000F8B50500124B9F89DE89B91B89B20B1C12
:103AE000402900D940239CB20D4B1B785BB2002BC0
:103AF00008DB0021B74211D00A4A23002800FFF753
:103B0000B1FCF8BDB74201D18021F3E7044B9968BD
:103B10002200044802F072FB8021EBE70022ECE770
:103B200088160020A416002070B506000C000B4D6E
:103B30000822280002F062FB0023AB60EB81AB811E
:103B40000023E356002B06DB8021002300223000F7
:103B5000FFF788FC70BD0021F7E7C04688160020FB
:103B6000F0B5C64600B580460C0016001D00184F83
:103B70000822380002F042FBBE600023FB81A379DB
:103B8000E179090219430B1CA94200D92B1C99B2F7
:103B90000F4A9381A279E3791B02134309D00029CC
:103BA00001D0002E12D04046FFF792FF80BCB846ED
:103BB000F0BD0023E356002B06DB8021002300220A
:103BC0004046FFF74FFCF1E70021F7E70020EDE763
:103BD0008816002010B514220021024802F008FBCC
:103BE00010BDC04688160020014B18617047C046C2
:103BF0008816002010B50100044C0822200002F0B5
:103C0000FDFA0023A360E381A38110BD8816002084
:103C100070B505001C00C9092D4B1B78DB098B42D0
:103C200011D0002C50D12B4B002B02D02849FFF78C
:103C3000D9F8274B1B69002B03D0254A0321280004
:103C40009847012070BD224B1B785BB2002B07DB2D
:103C50001F4B9868002839D022001F4902F0CEFA85
:103C6000A2B21B49CB89D3189BB2CB818A681219A7
:103C70008A60CA88934201D03F2C21D8144B1B691B
:103C8000002B05D0124A02212800984700280DD0A9
:103C90000F4B1B785BB2002B06DB80210023002238
:103CA0002800FFF7DFFBCDE70021F7E70021280020
:103CB000FFF7E4F880212800FFF7E0F80120C1E7D2
:103CC0002800FFF705FFBDE70020BBE70020B9E7AC
:103CD00088160020E52D0010A416002070B5040001
:103CE00005001035280000F0FBFF80239B00984260
:103CF00001D2002070BDE1780020FFF78BFB002887
:103D0000F8D0280000F0ECFF80239B00984209D3F4
:103D10008923DB00E2188023E1789B000020FFF775
:103D2000A1FBE7E7E1780020FFF788FB0020E1E74F
:103D300010B50400FFF7A0FA00280ED10023002BD5
:103D400013D060010019C0000019C000094B1818F9
:103D50000379DB070BD5012008E0FFF795FA00286F
:103D600001D10123EBE70023E9E7002010BD00208B
:103D7000FCE7C046400E002010B5020043011B18AE
:103D8000D8008018C0001030024BC01800F077FF38
:103D900010BDC046400E002070B544012418E30059
:103DA0001C18E400074D641992B21B18DB00103395
:103DB000581900F0CCFF05002000FFF78FFF280006
:103DC00070BDC046400E002070B50500FFF754FAE4
:103DD000002804D10023002B09D1002070BDFFF77B
:103DE00053FA002801D10123F5E70023F3E76C0122
:103DF0006419E4006419E4002034264BE418043408
:103E0000200000F03CFF002801D10020E6E76B0114
:103E10005B19DB005B19DB001E4AD3189978002080
:103E2000FFF7F8FA002801D10020D7E76E017619D4
:103E3000F6007619F600C923DB009C466644154B54
:103E4000F618802292003100200000F080FF041E4E
:103E500010D068014019C0004519ED000D48451902
:103E6000A978230032000020FFF7FCFA00280ED0CA
:103E70002000B3E768014019C0004519ED00054B6B
:103E80005D19A9780020FFF7D9FA0020A6E70020E5
:103E9000A4E7C046400E002070B505004401241878
:103EA000E4002418E4002034094BE418043492B2EE
:103EB000200000F083FF0600200000F0E0FE3F2815
:103EC00001D8300070BD2800FFF77EFFF9E7C0463B
:103ED000400E002010B5020043011B18D8008018C6
:103EE000C0002030024BC018043000F0F9FE10BDB5
:103EF000400E0020F0B5CE46474680B583B0314A2B
:103F00000021314802F074F90024002C04D003B0E1
:103F1000C0BCB946B046F0BD2B4F65012D19ED0070
:103F20002B19DE00BE19FF23737100239846274A20
:103F3000F28001223281B372F372082333732B199A
:103F4000D9003831C91980239B0099462B19D80014
:103F50001030C0194346009301334A4600F051FE29
:103F60002B19D9008E239B009C466144C9192B193B
:103F7000D8002030C0190430012300934A4600F0D5
:103F800040FE2A19D3008722D20094466344994602
:103F9000B9444846FEF732FD4346F3614B4633626F
:103FA0002A19D3008822D200944663449946B94422
:103FB0004846FEF723FD4B463363434673630134A3
:103FC000E4B2A2E748080000400E002000C2FFFF54
:103FD00070B50024002C00D070BD65012D19ED00D6
:103FE0002B19D8000D4E80190522002102F000F98E
:103FF0002B19D8001030801900F0E5FE2D19EB00C8
:1040000020339B191D1D280000F0DDFE0121280032
:1040100000F0F8FE0134E4B2DCE7C046400E0020B8
:10402000F0B583B006004B79022B56D18B79022B69
:1040300057D10023002B08D00027002F53D08B78B6
:104040003B700C780C19092517E05801C018C00006
:10405000C018C000274D28188078002802D00133EE
:10406000DBB2E7E75F01FF18FF00FF18FF007F19D1
:10407000E3E721784D19ADB264186378242B01D1A0
:104080009542F6D9052B09D06378042B02D16379C8
:104090000A2B10D03800FFF721FE1FE0210030006E
:1040A000FFF76CF9002820D0A3787B70227855198F
:1040B000ADB2A418E8E721784D19ADB26118BB1C68
:1040C0000193FB1C0093022302223000FFF770F9DA
:1040D00000280CD00E35ADB2DCE70025280003B077
:1040E000F0BD0025FAE70025F8E70025F6E70025F2
:1040F000F4E7C046400E0020F8B5140012786023A3
:104100001340202B7ED1444A0025002D00D07BE0B7
:104110001678277963791B023B439E4205D001350F
:10412000EDB23E4B9C466244EFE76378222B31D0E0
:1041300009D8202B11D0212B03D1012923D0012014
:1041400061E000205FE0232B05D1012949D003293C
:104150004CD0012057E0002055E0012903D003296D
:1041600008D001204FE0063207232100FFF7F8FCBA
:10417000012048E02A4B002B48D0911D2800FDF774
:1041800041FB01203FE0063207232100FFF7E8FC56
:10419000012038E0012903D0032906D0012032E0B4
:1041A0002100FFF7C1FC01202DE0A178E3781B027C
:1041B0000B430120190001400E005C0804401371FC
:1041C0004B425941C9B22432100000F01BFE154B7E
:1041D000002B1DD022003100280000E000BF01208C
:1041E00011E02100FFF7A0FC01200CE00E4B002B9A
:1041F00010D0A378E17809021943280000E000BF3D
:10420000012000E00020F8BD0020FCE70120FAE7D3
:104210000120F8E70120F6E7400E002048080000E2
:10422000051800100000000000000000F0B5D646A0
:1042300000B582B001900E0000930027002F0ED031
:10424000002F00D07EE0E378B34218D0A378B342C9
:104250004FD00125280002B080BCBA46F0BD7C01D9
:10426000E419E400E419E400394BE418E378B342BC
:10427000E6D0A378B342E3D00137FFB2DEE71023E4
:104280009A46A2448923DB00E1186B461A885046FF
:1042900000F094FD2F4B002B1BD06379FF2B18D01F
:1042A000002500E00135009B9D4212D2627963191E
:1042B0008921C9008C4663441B789A42F2D150464A
:1042C00000F0F2FC0028EDD16179380000E000BF79
:1042D000E8E7214B002B04D0504600F0E5FC002815
:1042E00003D02000FFF7FAFCB0E7380000E000BF81
:1042F000F7E71A4B002B02D0380000E000BF38006F
:10430000FFF762FD002801D00125A3E7200024303B
:1043100000F0B5FC002817D1009B002B16D09B069F
:1043200001D0012596E7A1780198FFF773F8051EE3
:1043300001D101258EE7A178002300220198FFF723
:1043400091F887E7002585E7012583E7012581E7C7
:10435000400E0020000000000000000000000000EF
:1043600010B5040081780020FFF7B8F8002800D0CD
:1043700010BD201D00F0B4FC3F28F9D98F239B000D
:10438000E218A178FD3BFF3B0020FFF76BF8EFE759
:1043900070B5040041780020FFF7A0F8002802D093
:1043A0000025280070BD9F239B00E61820001830D0
:1043B0004022310000F0CBFC051EF2D061780300F2
:1043C00032000020FFF74EF80028EAD10025E8E788
:1043D000F0B5CE46474680B583B0AF2292000021AB
:1043E000244801F005FF0025002D04D003B0C0BC17
:1043F000B946B046F0BDAF24A4006C43210028317B
:104400001C4E8919043180235B009946A719381D79
:1044100000239846009301334A4600F0F2FB210046
:104420002931FF31891904312000183080194346A1
:10443000009301334A4600F0E4FB8A239B00E31813
:104440009B19043399461800FEF7D8FA43463B619E
:104450004B467B618C239B009C466444A419043426
:104460002000FEF7CBFA7C624346BB620135EDB219
:10447000BAE7C04600180020F8B50025002D00D08E
:10448000F8BDAF24A4006C43084FE61904220021B4
:10449000300001F0ADFE301D00F095FC200018301A
:1044A000C01900F090FC0135EDB2E7E700180020DC
:1044B000F0B583B006000D004B79FF2B56D10C7878
:1044C0000C19A3180022002A0AD00027002F50D070
:1044D000AA783A702A79002A1ED1601B80B246E081
:1044E0001000AF27BF0057432449C9194978002954
:1044F00007D1AF27BF0057432049C9198978002940
:1045000002D00132D2B2DEE7AF27BF0078431B4FA3
:10451000C719DBE7217864186178052901D09C422E
:10452000F8D37B1C0193BB1C0093022321003000B5
:10453000FEF73EFF00281ED02A79D3009B1AE4180C
:10454000B978002906D17B78002BC6D03800FFF758
:104550001FFFC2E78F239B00FA18FD3BFF3B300093
:10456000FEF780FF0028EED1002000E0002003B01D
:10457000F0BD0020FBE70020F9E7C046001800204E
:1045800070B51C4D0024002C32D1AA788A4209D083
:104590006878884206D00134E4B2AF229200944693
:1045A0006544F0E78A4204D06A788A4213D0012039
:1045B0001FE08F229200A9189AB2281D00F0FEFB7E
:1045C0000D4B002B02D0200000E000BF2800FFF7B9
:1045D000C7FE01200DE0094A002A04D01B04190C73
:1045E000200000E000BF2800FFF7D2FE012000E01D
:1045F000002070BD00180020000000000000000036
:1046000010B50020FEF752FE10BD10B5FEF744FEB7
:10461000002800D0012010BD70B504000D00037803
:10462000DB07DE0F002B1CD103785B071AD40121B6
:104630004942280001F080FE2378DB0704D4237868
:104640005B070CD5002600E00026002E03D023785F
:10465000042213432370280001F04EFE02E00126DD
:10466000F3E70026300070BD70B504000E00012194
:104670004942300001F060FE23785B070BD400252F
:10468000002D03D02378042293432370300001F0DF
:1046900033FE280070BD2378DB0701D50025EFE746
:1046A0000125EDE710B5047943791B0223435B052F
:1046B0005B0DC2789207920F022A0FD0032A19D0FD
:1046C000012A01D0002010BD022904D0124A9A42CA
:1046D0001AD30120F7E78022D200F8E7022903D09D
:1046E000402B15D80120EEE78022920093420DD195
:1046F0000120E8E7022904D040229A420AD301208F
:10470000E1E78022D200F8E70020DCE70020DAE7CA
:104710000020D8E70020D6E7FF03000030B58A1854
:1047200001E00C78091991420AD24C78052CF8D195
:104730008D787A342C4064000419ED096355F0E754
:1047400030BD03008A1890B2814202D85A009042CC
:1047500003DB5B009BB2C01A80B2704770B50500E6
:104760000800AC889A420BD3D11A89B200291ED016
:104770008C4210D2944209D8131B9BB26B810AE081
:10478000D11A89B26600891989B2EFE7A21893B2EB
:10479000F4E71B1B9BB29C42FBD92968EA885204B0
:1047A000520C5343C91801F029FD012070BD0020AF
:1047B000FCE7F0B583B0060093080CE00B784D7869
:1047C0002D021D438C7824042543CB781B062B43F4
:1047D000336004313B005F1EBFB2002BEED10333C8
:1047E000100018401A4201D103B0F0BD002301931C
:1047F000020001A801F002FD019B3360F4E7F0B56F
:10480000DE4657464E464546E0B583B005008A462B
:104810000CA909788488E01A80B21C1B1419A4B270
:10482000EF887F047E0C07007743BFB27443A4B2C5
:10483000A34673432C68A0469844002908D0012958
:104840001AD003B0F0BCBB46B246A946A046F0BDA4
:10485000904205D372434146504601F0CFFCF0E749
:104860003A004146504601F0C9FC296838005044DE
:104870005A4601F0C3FCE4E7904206D3724392B279
:1048800041465046FFF795FFDBE703233A009A4382
:10489000914641465046FFF78CFF43464B44032167
:1048A0003A000A400F4230D00421891A89B2081C0C
:1048B000594500D95846C7B2FF2101405846441A0D
:1048C000A1B28B460021019101A804E01A78027080
:1048D00001300A000133511EC9B2002AF6D12968FD
:1048E00004E00A78027001301F0001317B1EDBB248
:1048F000002FF6D15346019A1A605B46002BA0D0D8
:104900005A465046FFF755FF9BE72968F5E7F0B593
:10491000C64600B582B01E0008AB1B8809AC2778DC
:1049200084889E420FD3F51AADB2002D1FD0AC4241
:1049300005D2B44210D8331B9BB243812500954267
:104940000FD315000DE0F51AADB2A8466500AC46D0
:1049500045466544ADB2E8E7A619B3B2EDE71B1BC7
:104960009BB29C42FBD900972A00FFF748FF280022
:1049700002B080BCB846F0BDF0B583B004000D00B5
:1049800016001F000069002803D00121494201F0F0
:10499000D3FC23899BB262890197009232002900DF
:1049A0002000FFF7B4FF0500618989B2A0882A00C2
:1049B000FFF7C7FE60812069002801D001F09CFC50
:1049C000280003B0F0BD70B582B01600950809E06C
:1049D0000B6803701D0A45701D0C85701B0EC3709B
:1049E000043025006C1EA4B2002DF1D10323320047
:1049F0001A401E4201D102B070BD0B68019301A99B
:104A000001F0FCFBF7E7F0B5DE4657464E4645465B
:104A1000E0B583B005008A460CA90878AC88E11A95
:104A200089B21C1B1419A4B2EF887F047E0C0F00FE
:104A30007743BFB27443A4B2A34673432C68A04625
:104A40009844002808D001281AD003B0F0BCBB4617
:104A5000B246A946A046F0BD914205D372435146E5
:104A6000404601F0CBFBF0E73A005146404601F0EA
:104A7000C5FB2868390051445A4601F0BFFBE4E702
:104A8000914206D3724392B251464046FFF79BFFD4
:104A9000DBE703233A009A43914651464046FFF72D
:104AA00092FF43464B4403213A000A400F422ED066
:104AB0000421891A89B2081C594500D95846C7B241
:104AC000FF2101405846441AA1B28B46514609685D
:104AD000019101A904E00A781A7001310200013342
:104AE000501EC0B2002AF6D1286804E00A7802708D
:104AF00001311F0001307B1EDBB2002FF6D15B4677
:104B0000002BA2D05A465146FFF75DFF9DE728686B
:104B1000F5E7F0B585B006000391151E029300D1AC
:104B20006DE0C068002803D00121494201F004FC77
:104B30003489A4B2718989B2F379DB091AD1B388B7
:104B40008C420FD3611A89B28B4211D95B1A9BB286
:104B50002F1C9D4200D91F1CBFB2002F47D0B28826
:104B6000230035E0611A89B25A00891889B2EBE74F
:104B70000023EDE7B788AF420ED8029B002B21D16E
:104B8000ED1BF3885B045A0C6A43039B9C469444D8
:104B9000634603930C00E0E78C420DD3631A9BB28B
:104BA0005B197A0093420FDB7A1B92B23800FFF751
:104BB000C8FD04002F00D0E7631A9BB27A009B184F
:104BC0009BB2EDE70C00C8E72F00C6E79B1A9BB22B
:104BD0009A42FBD9029A00923A0003993000FFF7FB
:104BE00012FFB0883A002100FFF7ABFD3081F0687A
:104BF000002801D001F080FB380005B0F0BD17009F
:104C0000FAE7F0B583B00400019116001D0008AB6F
:104C10001F7880231B029A422DD8C068002803D039
:104C20000121494201F088FB2069002803D00121BD
:104C3000494201F081FB019B2360A6806D046B0C4F
:104C4000E288D20BD5031D43E580FB01E2797F2783
:104C500017401F43E771002363812381E068002828
:104C600001D001F049FB2069002806D001F044FB87
:104C7000012003B0F0BD0020FBE70120F9E78188A7
:104C800003899BB2428992B2934207D39B1A9BB28B
:104C9000081C994200D9181C80B270479B1A9BB21D
:104CA0004A009B189BB2F3E7030000895B89C01A96
:104CB00043425841C0B27047818803899BB2428900
:104CC00092B2934206D39B1A9BB200208B42404182
:104CD000C0B270479B1A9BB24A009B189BB2F4E784
:104CE000828803899BB2408980B2834206D31B1A13
:104CF0009BB29A4208D9D31A98B270471B1A9BB23A
:104D000050001B189BB2F4E70020F6E770B50400D2
:104D10000D000069002803D00121494201F00CFB7D
:104D2000228992B263899BB229002000FFF716FD09
:104D30000500618989B282B2A088FFF702FD608117
:104D40002069002801D001F0D7FA280070BD10B505
:104D50000023FFF711FE10BDF8B504000E00C06877
:104D6000002803D00121494201F0E6FA2589ADB2BD
:104D70002000FFF7A1FF002802D0E779FF0916D035
:104D8000A2882B0001E09B1A9BB29A42FBD9E288D1
:104D90005204520C53432168C818310001F02EFA16
:104DA000A08801222900FFF7CCFC20810127E068C0
:104DB000002801D001F0A0FA3800F8BD10B500239A
:104DC000FFF7A7FE10BD10B50400C068002803D08F
:104DD0000121494201F0B0FA2069002803D00121E5
:104DE000494201F0A9FA002363812381E068002889
:104DF00001D001F081FA2069002801D001F07CFA8D
:104E0000012010BD70B504000D00C068002803D05B
:104E10000121494201F090FA2069002803D00121C4
:104E2000494201F089FAED01E3797F2119402943D4
:104E3000E171E068002801D001F05EFA20690028E5
:104E400001D001F059FA012070BD000010B58300B7
:104E5000084A9A18126840245440C0222240064C46
:104E6000A44663441A60C000044B9C466044416001
:104E700010BDC04604C0014004D0014000400140C4
:104E8000F8B5D646474680B506000D00170098468F
:104E900044002418A400294B9C4664446368089A83
:104EA000934200D26260331FDBB29A46012B2ED9A7
:104EB00080221201C0239B01E3181A60B300204A2C
:104EC0009958002907D0506900F09EFA431C5800F9
:104ED000C0180338FDD27F0122685740E0221740F6
:104EE00080235B01E3181F605246012A1AD98023F0
:104EF0009B01E318802212011A60089B6360B600D0
:104F00000F4B4246F250C0BCBA46B046F8BD012D28
:104F1000CED10322C0239B01E3181A60A368DB07EC
:104F2000FCD5D8E72168694003220A401A60A368CB
:104F30000122AA401A42FAD0D9E7C04600800040B8
:104F4000CC1B0020F0B583B005000E001700180040
:104F5000089900F059FA0300089A140200943A00E4
:104F600031002800FFF78CFF03B0F0BD10B582B010
:104F7000802464000094FFF783FF02B010BD00009E
:104F80008000014BC0587047CC1B0020F0B5C646CE
:104F900000B504000E0017001D00364800F034FA7A
:104FA0008046354BFA18354B9A4238D80100380004
:104FB00000F02AFA0200103A98235B009A4234D893
:104FC0006B1E062B37D8069B013B062B33D83F09B7
:104FD000474536D32D04069B1A0315432368002B3F
:104FE00035DB274B9C4243D00C2301229A40254BB2
:104FF0001A60254B1A60254B1B6811009943FAD1A2
:105000002660A060224BE218212313602368002B46
:10501000FCDAE5600823136080BCB846F0BD1D4B88
:105020001D4A11211D4801F0F5F81D4B1A4A19219E
:105030001A4801F0EFF81B4B174A1C21174801F0E2
:10504000E9F8194B144A2321144801F0E3F82268C7
:105050003F231340B342C4D1A3681B051B0D8342F9
:10506000BFD1E368EE22D2021340AB42B9D1D3E7FD
:105070000D23BAE7001BB70080E84BD380F8A932B4
:1050800000C0024000E0004000F0004008C00040C6
:1050900004300000D472001000740010247300105B
:1050A0007C73001098730010E4730010024B1A68B0
:1050B000024B5A607047C0462820002000800540FF
:1050C00010B50200164B8020C0051860154B16481D
:1050D000186000290AD0154BE021C9041960002A84
:1050E00009D1124B802212061A6010BD0C4BE02130
:1050F000C9041960F3E753019B1A98008018000156
:105100000B4B186080235B04984202D3084B094A7A
:105110001A60FFF7CBFF054B8022D2051A60E4E747
:1051200000B0054008200140FCFF010000A0054040
:1051300028200020FFFFFF0010B5030010000C4ADC
:105140008024E4051460002B0DD001221343094A8A
:10515000094CD461094C5C40146251629362002195
:10516000FFF7AEFF10BD034B0022DA61F7E7C04640
:1051700000B0054000800540D3C007B02D3FF84F78
:1051800080239B000B43014AD36270470080054097
:10519000074BAA2212011A608D225200DA60054BD9
:1051A000054A1A60024B5B68002BFBDA7047C04669
:1051B000004002400060024000B0FA0010B5040058
:1051C00001E008CC9847024B9C42FAD310BDC04680
:1051D000E46300107047000010B50248FFF7EEFFCF
:1051E00010BDC046A8630010054B064A1A60064B66
:1051F000064A1A60064B1A68044B9343FAD170476B
:1052000000E00040BFCDFBFE00F00040FE7F3C0010
:1052100008C00040044BDB6C002B03D1034B802201
:10522000D2021A607047C046000011504C20115045
:10523000044B054A1A60054B1B68DB43DB01FAD1BE
:105240007047C04600F00040FFFFFF0108C000406B
:10525000034B40229A675A671A67DA667047C0465E
:1052600000F0014010B5FDF74FF910BD10B50C4A24
:105270000C4BD21A92101400302A00D9302292001E
:105280000849094800F0BAFF04E0A2000749064BAC
:10529000D15001342F2CF8D9034A054B9A6010BD28
:1052A000C00100100001001000000020C10100102A
:1052B00000ED00E070B50420FFF762FE064900F043
:1052C000A3F805000024002C00DD70BDE0B2290029
:1052D000FFF756FF0134F6E740420F0030B583B0C8
:1052E000274B00229A67FFF753FF264B01221A60D3
:1052F000234B5B6C012BFBD1234B03221A60204B09
:105300009B6B012BFBD10133009304331F4A012116
:105310001F48FFF73BFE052300931E4A01211E484C
:10532000FFF734FE1D4B002202210420FFF71EFE72
:105330001B4D2B00002201210520FFF717FE194C01
:105340002300002200210720FFF710FE2300002287
:1053500000210820FFF70AFE8023DB0000932300D2
:10536000002200210920FFF7EDFD2B000022002183
:105370000620FFF7FBFDFFF79DFF03B030BDC046E1
:10538000008000403CB0004030B00040002F685921
:1053900000800240008C864700C00240001BB7001E
:1053A00040597307006CDC0201480421014B184787
:1053B000700C00207F2B0010124A936F9B0815D2AF
:1053C0009066D166002905D0FFE7FFE7FFE7516F40
:1053D000106F704704B580210906C217514000289C
:1053E00000D0C84300F098FF002104BDF0B5146E52
:1053F000556E576F166FFFF7E3FF146655665767D4
:105400001667F0BD000000D0114A936F9B0813D2BD
:1054100010665166002905D0FFE7FFE7FFE7516FEF
:10542000106F704704B5002801D00020C04300F081
:1054300073FF002104BDC046F0B5146E556E576F62
:10544000166FFFF7E5FF1466556657671667F0BDE0
:10545000000000D094464A4A926F9208624601D2F8
:1054600028E0C046F0B5464E346E756E776F366FE5
:1054700000F020F89446424A14665566576716674E
:105480006246F0BD94463E4A926F9208624601D24F
:1054900054E0C046F0B53A4E346E756E776F366F95
:1054A00000F04CF89446364A1466556657671667FE
:1054B0006246F0BD002B24DB11D000293EDA00B596
:1054C000C943404200D1013100F038F8C94340429D
:1054D00000D10131DB43524200D1013300BD002A2B
:1054E000EBD1002801D1002905D00020C90FC90740
:1054F00001D1C043410800B500F006FF002200239F
:1055000000BD00B500290ADBDB43524200D1013364
:1055100000F014F8C943404200D1013100BDC94335
:10552000404200D10131DB43524200D1013300F04F
:1055300005F8DB43524200D1013300BD002923D1DD
:10554000002B18D1002A0CD0BC460D4F38667A6665
:1055500000210023FFE7FFE7FFE77A6F386F674618
:105560007047002801D00748010000B500F0CCFECC
:105570000022002300BD02000B0000200021704724
:10558000000000D0FFFFFFFF002B00D0BFE0130C96
:1055900028D1002AE7D080B4114F39667A66FFE738
:1055A000FFE730B4040C7B6F396F1B0423433B6669
:1055B0007A66FFE7FFE7FFE7C04684B27B6F3D6F87
:1055C0001B0423433B667A66FFE7FFE7C0460023E0
:1055D0002C042D0C7A6F386F00196941B0BC7047EC
:1055E000000000D0F0B594460025140E01D112023F
:1055F0000835140F01D112010435940F01D1920026
:105600000235D40F01D152000135D40B0134254F9E
:105610007C66254C3C660E0C93B2FFE7FFE7FFE784
:105620003C6F6643360C7703BE467343DF0B5B0467
:10563000C01AB941130C7343DB18C91ACE0866436C
:10564000360CB64493B273431F0F1B01C01AB94105
:10565000130C73431F0B1B05C01AB941860D8F0233
:105660003E436643360C092D24DB520A7243801AEE
:105670007703460A6643360C16235B1BDE40DF4089
:10568000BF1964466643821B704604350633010029
:10569000D940A840C01900D30131A24206D200234C
:1056A000F0BD0000000000D0FFFFFFFF121B013023
:1056B000F3D3F1E709277F1BFE406446A2B2724391
:1056C000801A00D20139220C7243130C1204821A80
:1056D00099410B007046043513370100F940A8408A
:1056E000801900D30131002B02D1A2420AD2F0BDB1
:1056F000013000D30131121BFAD2013BF8D1A24292
:1057000000D2F0BD013000D30131121BF7E7F0B534
:105710001C0C00D080E00CB400251C0A04D11B0234
:10572000160E3343120208351C0B04D11B01160F51
:105730003343120104359C0B04D19B00960F334375
:1057400092000235DC0B02D192185B4101351C003E
:10575000971864410134464F7C66464C3C660E0CFB
:10576000FFE7FFE7FFE7C0463C6F6643360C770371
:10577000BE4697B27743C01B00D20139C01B00D28E
:1057800001399FB27743C91BC91B170C77437E04AD
:10579000FF0B801BB941CE086643360C0C2D33DB62
:1057A000B644120B1F053A431B0B97B27743C01B3D
:1057B00000D201399FB27743C91B170C77433E04CF
:1057C0003F0C801BB941860D8F023E43664329275B
:1057D0007F1BFE400C3D7746AF40BF1930BCA2B2E4
:1057E000ABB272437343801A9941220C7243130C7B
:1057F0001204801A994102000B000137001BA941D5
:10580000F9D2781E0021F0BD0C277F1BFE407746A1
:105810007F0BAF40FF19E0E700245D1C07D0144F59
:105820007D663966FFE7FFE7FFE7FFE73C6F95B26C
:105830009EB265436643401BB141150C1E0C654387
:10584000664336042F0C3E432D04401BB141994260
:1058500004D202000B0020000021F0BD01D19042D3
:10586000F7D3801A994101349942F2D3F6E7000048
:10587000000000D0FFFFFFFF48404140484018B4FF
:105880001B4B5B68FC46019308BD04DF4F5B0010B7
:1058900018B4174B1B68FC46019308BD00DF595B29
:1058A00000109446134A926F920809D2624618B4C7
:1058B0000F4BDB68FC46019308BD0CDF115E001046
:1058C0000C4AF0B5146E556E576F166F6246FFF7AF
:1058D000EEFF084A1466556657671667F0BD18B4A0
:1058E000034B9B68FC46019308BD08DFB55C0010C4
:1058F00050200020000000D0FFB5504042405040F2
:1059000059404B40594000E0FFB5154F4C00640D25
:1059100003D0BC4204D10C0314D80020090D0905A2
:105920005C00640D03D0BC4204D11C030AD80022E1
:105930001B0D1B0501264B4009D44B4003D58B4260
:1059400000D18242FFBD9942FCD19042FFBD0B4382
:10595000DB1803431343F5D0C9434918FFBD0000CA
:10596000FF07000000B5FFF7CFFF804100BDC04634
:1059700000B5FFF7C9FF01D9002000BD012000BD1F
:1059800000B5FFF7B9FF01D9002000BD012000BD1F
:1059900000B5FFF7B1FF804100BD012040054A007E
:1059A000121804D85A00121801D80020704701209C
:1059B000704700000021002805D17047C1174840FA
:1059C000401AFAD0C90713B5064B1B6898470CBCA0
:1059D000441CA2401005120B0349091B0905194379
:1059E000114310BD502100201F04000010B54C00D1
:1059F000620D8023D218DB00D21A5B057E2A10DDEF
:105A00009E3A13DACC170903490819435242D14090
:105A1000640001341532202A05DAD040084360437F
:105A200010BD002010BD0846604310BDC80FC0184F
:105A3000013810BD18B4044B5B6AFC46019308BDE5
:105A400024DFC15F001000005020002070B5132338
:105A50001C78012C14D0012C14DC022C02DC1F4A0F
:105A60001F4B9A641F48FDF77AF81F4B186070BDF2
:105A700099001A481A4A885001331F2BF8D9EAE7CF
:105A80000023FAE71948FDF772F805001848FDF7FA
:105A90006EF8023803789B007F2B19DD80222900E5
:105AA0000F4800F0ABFB022CD7D1124B1A88B5235C
:105AB0001B029A4209D1104B1A88104B9A4204D10A
:105AC0000F4B1A880F4B9A42C7D00020FCF78EFC70
:105AD0000D4B0E4A33210E4800F09CFB155B001065
